{
  "address": "0xe7f1725E7734CE288F8367e1Bb143E90bb3F0512",
  "abi": [
    {
      "inputs": [
        {
          "internalType": "address",
          "name": "priceFeedAddress",
          "type": "address"
        }
      ],
      "stateMutability": "nonpayable",
      "type": "constructor"
    },
    {
      "inputs": [],
      "name": "FundMe__BelowMinimum",
      "type": "error"
    },
    {
      "inputs": [],
      "name": "FundMe__NotOwner",
      "type": "error"
    },
    {
      "inputs": [],
      "name": "FundMe__TakeFailTheMoney",
      "type": "error"
    },
    {
      "inputs": [],
      "name": "Fund",
      "outputs": [],
      "stateMutability": "payable",
      "type": "function"
    },
    {
      "inputs": [
        {
          "internalType": "uint256",
          "name": "_minimumUsd",
          "type": "uint256"
        }
      ],
      "name": "changeMinimumUsd",
      "outputs": [],
      "stateMutability": "nonpayable",
      "type": "function"
    },
    {
      "inputs": [
        {
          "internalType": "address",
          "name": "funder",
          "type": "address"
        }
      ],
      "name": "getAddressToFundValue",
      "outputs": [
        {
          "internalType": "uint256",
          "name": "",
          "type": "uint256"
        }
      ],
      "stateMutability": "view",
      "type": "function"
    },
    {
      "inputs": [
        {
          "internalType": "uint256",
          "name": "index",
          "type": "uint256"
        }
      ],
      "name": "getFunders",
      "outputs": [
        {
          "internalType": "address",
          "name": "",
          "type": "address"
        }
      ],
      "stateMutability": "view",
      "type": "function"
    },
    {
      "inputs": [],
      "name": "getOwner",
      "outputs": [
        {
          "internalType": "address",
          "name": "",
          "type": "address"
        }
      ],
      "stateMutability": "view",
      "type": "function"
    },
    {
      "inputs": [],
      "name": "getPriceFeed",
      "outputs": [
        {
          "internalType": "contract AggregatorV3Interface",
          "name": "",
          "type": "address"
        }
      ],
      "stateMutability": "view",
      "type": "function"
    },
    {
      "inputs": [],
      "name": "removeMoney",
      "outputs": [],
      "stateMutability": "nonpayable",
      "type": "function"
    }
  ],
  "transactionHash": "0x2cc98e15c7800f502ff38c44c3ed4014fd65beea4d5841ac0d3768e9eae44591",
  "args": [
    "0x5FbDB2315678afecb367f032d93F642f64180aa3"
  ],
  "numDeployments": 1,
  "solcInputHash": "85be4b12e153285deaebff07f6d61a85",
  "bytecode": "0x6080604052676f05b59d3b20000060045534801561001c57600080fd5b50604051610e9a380380610e9a833981810160405281019061003e9190610129565b33600260006101000a81548173ffffffffffffffffffffffffffffffffffffffff021916908373ffffffffffffffffffffffffffffffffffffffff16021790555080600360006101000a81548173ffffffffffffffffffffffffffffffffffffffff021916908373ffffffffffffffffffffffffffffffffffffffff16021790555050610156565b600080fd5b600073ffffffffffffffffffffffffffffffffffffffff82169050919050565b60006100f6826100cb565b9050919050565b610106816100eb565b811461011157600080fd5b50565b600081519050610123816100fd565b92915050565b60006020828403121561013f5761013e6100c6565b5b600061014d84828501610114565b91505092915050565b610d35806101656000396000f3fe6080604052600436106100705760003560e01c8063893d20e81161004e578063893d20e8146100d35780639e87a5cd146100fe578063c8d98f4414610129578063d78a29d21461016657610070565b80633a7b6c74146100755780636ce1417e146100b257806380b9a083146100bc575b600080fd5b34801561008157600080fd5b5061009c600480360381019061009791906106d9565b61018f565b6040516100a99190610747565b60405180910390f35b6100ba6101d6565b005b3480156100c857600080fd5b506100d1610335565b005b3480156100df57600080fd5b506100e8610469565b6040516100f59190610747565b60405180910390f35b34801561010a57600080fd5b50610113610493565b60405161012091906107c1565b60405180910390f35b34801561013557600080fd5b50610150600480360381019061014b9190610808565b6104bd565b60405161015d9190610844565b60405180910390f35b34801561017257600080fd5b5061018d600480360381019061018891906106d9565b610506565b005b60008082815481106101a4576101a361085f565b5b9060005260206000200160009054906101000a900473ffffffffffffffffffffffffffffffffffffffff169050919050565b60045461020e600360009054906101000a900473ffffffffffffffffffffffffffffffffffffffff163461051090919063ffffffff16565b1015610246576040517f0bd6724500000000000000000000000000000000000000000000000000000000815260040160405180910390fd5b6000339080600181540180825580915050600190039060005260206000200160009091909190916101000a81548173ffffffffffffffffffffffffffffffffffffffff021916908373ffffffffffffffffffffffffffffffffffffffff1602179055506102de600360009054906101000a900473ffffffffffffffffffffffffffffffffffffffff163461051090919063ffffffff16565b600160003373ffffffffffffffffffffffffffffffffffffffff1673ffffffffffffffffffffffffffffffffffffffff168152602001908152602001600020600082825461032c91906108bd565b92505081905550565b600260009054906101000a900473ffffffffffffffffffffffffffffffffffffffff1673ffffffffffffffffffffffffffffffffffffffff163373ffffffffffffffffffffffffffffffffffffffff16146103bc576040517f579610db00000000000000000000000000000000000000000000000000000000815260040160405180910390fd5b60003373ffffffffffffffffffffffffffffffffffffffff16476040516103e290610944565b60006040518083038185875af1925050503d806000811461041f576040519150601f19603f3d011682016040523d82523d6000602084013e610424565b606091505b505090506001151581151514610466576040517fc143eb4e00000000000000000000000000000000000000000000000000000000815260040160405180910390fd5b50565b6000600260009054906101000a900473ffffffffffffffffffffffffffffffffffffffff16905090565b6000600360009054906101000a900473ffffffffffffffffffffffffffffffffffffffff16905090565b6000600160008373ffffffffffffffffffffffffffffffffffffffff1673ffffffffffffffffffffffffffffffffffffffff168152602001908152602001600020549050919050565b8060048190555050565b60008061051c8361054c565b90506000670de0b6b3a764000082866105359190610959565b61053f91906109e2565b9050809250505092915050565b6000808273ffffffffffffffffffffffffffffffffffffffff1663feaf968c6040518163ffffffff1660e01b815260040160a06040518083038186803b15801561059557600080fd5b505afa1580156105a9573d6000803e3d6000fd5b505050506040513d601f19601f820116820180604052508101906105cd9190610aa0565b50505091505060006105de84610614565b600a6105ea9190610c4e565b670de0b6b3a76400006105fd91906109e2565b9050808261060b9190610959565b92505050919050565b60008173ffffffffffffffffffffffffffffffffffffffff1663313ce5676040518163ffffffff1660e01b815260040160206040518083038186803b15801561065c57600080fd5b505afa158015610670573d6000803e3d6000fd5b505050506040513d601f19601f820116820180604052508101906106949190610cd2565b60ff169050919050565b600080fd5b6000819050919050565b6106b6816106a3565b81146106c157600080fd5b50565b6000813590506106d3816106ad565b92915050565b6000602082840312156106ef576106ee61069e565b5b60006106fd848285016106c4565b91505092915050565b600073ffffffffffffffffffffffffffffffffffffffff82169050919050565b600061073182610706565b9050919050565b61074181610726565b82525050565b600060208201905061075c6000830184610738565b92915050565b6000819050919050565b600061078761078261077d84610706565b610762565b610706565b9050919050565b60006107998261076c565b9050919050565b60006107ab8261078e565b9050919050565b6107bb816107a0565b82525050565b60006020820190506107d660008301846107b2565b92915050565b6107e581610726565b81146107f057600080fd5b50565b600081359050610802816107dc565b92915050565b60006020828403121561081e5761081d61069e565b5b600061082c848285016107f3565b91505092915050565b61083e816106a3565b82525050565b60006020820190506108596000830184610835565b92915050565b7f4e487b7100000000000000000000000000000000000000000000000000000000600052603260045260246000fd5b7f4e487b7100000000000000000000000000000000000000000000000000000000600052601160045260246000fd5b60006108c8826106a3565b91506108d3836106a3565b9250827fffffffffffffffffffffffffffffffffffffffffffffffffffffffffffffffff038211156109085761090761088e565b5b828201905092915050565b600081905092915050565b50565b600061092e600083610913565b91506109398261091e565b600082019050919050565b600061094f82610921565b9150819050919050565b6000610964826106a3565b915061096f836106a3565b9250817fffffffffffffffffffffffffffffffffffffffffffffffffffffffffffffffff04831182151516156109a8576109a761088e565b5b828202905092915050565b7f4e487b7100000000000000000000000000000000000000000000000000000000600052601260045260246000fd5b60006109ed826106a3565b91506109f8836106a3565b925082610a0857610a076109b3565b5b828204905092915050565b600069ffffffffffffffffffff82169050919050565b610a3281610a13565b8114610a3d57600080fd5b50565b600081519050610a4f81610a29565b92915050565b6000819050919050565b610a6881610a55565b8114610a7357600080fd5b50565b600081519050610a8581610a5f565b92915050565b600081519050610a9a816106ad565b92915050565b600080600080600060a08688031215610abc57610abb61069e565b5b6000610aca88828901610a40565b9550506020610adb88828901610a76565b9450506040610aec88828901610a8b565b9350506060610afd88828901610a8b565b9250506080610b0e88828901610a40565b9150509295509295909350565b60008160011c9050919050565b6000808291508390505b6001851115610b7257808604811115610b4e57610b4d61088e565b5b6001851615610b5d5780820291505b8081029050610b6b85610b1b565b9450610b32565b94509492505050565b600082610b8b5760019050610c47565b81610b995760009050610c47565b8160018114610baf5760028114610bb957610be8565b6001915050610c47565b60ff841115610bcb57610bca61088e565b5b8360020a915084821115610be257610be161088e565b5b50610c47565b5060208310610133831016604e8410600b8410161715610c1d5782820a905083811115610c1857610c1761088e565b5b610c47565b610c2a8484846001610b28565b92509050818404811115610c4157610c4061088e565b5b81810290505b9392505050565b6000610c59826106a3565b9150610c64836106a3565b9250610c917fffffffffffffffffffffffffffffffffffffffffffffffffffffffffffffffff8484610b7b565b905092915050565b600060ff82169050919050565b610caf81610c99565b8114610cba57600080fd5b50565b600081519050610ccc81610ca6565b92915050565b600060208284031215610ce857610ce761069e565b5b6000610cf684828501610cbd565b9150509291505056fea2646970667358221220af4bc3cc75e533bb5feee2bfc744caf659b4d9fc1a74de8f7ee246b745b8684d64736f6c63430008080033",
  "devdoc": {
    "author": "油油爵",
    "details": "用了喂价合约 若是本地节点 会自动部署喂价合约",
    "kind": "dev",
    "methods": {},
    "title": "筹款项目",
    "version": 1
  },
  "userdoc": {
    "kind": "user",
    "methods": {},
    "notice": "仅供学习使用",
    "version": 1
  },
  "storageLayout": {
    "storage": [
      {
        "astId": 61,
        "contract": "contracts/FundMe.sol:FundMe",
        "label": "s_funders",
        "offset": 0,
        "slot": "0",
        "type": "t_array(t_address)dyn_storage"
      },
      {
        "astId": 65,
        "contract": "contracts/FundMe.sol:FundMe",
        "label": "s_addressToFundValue",
        "offset": 0,
        "slot": "1",
        "type": "t_mapping(t_address,t_uint256)"
      },
      {
        "astId": 67,
        "contract": "contracts/FundMe.sol:FundMe",
        "label": "s_owner",
        "offset": 0,
        "slot": "2",
        "type": "t_address"
      },
      {
        "astId": 70,
        "contract": "contracts/FundMe.sol:FundMe",
        "label": "s_priceFeed",
        "offset": 0,
        "slot": "3",
        "type": "t_contract(AggregatorV3Interface)45"
      },
      {
        "astId": 75,
        "contract": "contracts/FundMe.sol:FundMe",
        "label": "minimumUsd",
        "offset": 0,
        "slot": "4",
        "type": "t_uint256"
      }
    ],
    "types": {
      "t_address": {
        "encoding": "inplace",
        "label": "address",
        "numberOfBytes": "20"
      },
      "t_array(t_address)dyn_storage": {
        "base": "t_address",
        "encoding": "dynamic_array",
        "label": "address[]",
        "numberOfBytes": "32"
      },
      "t_contract(AggregatorV3Interface)45": {
        "encoding": "inplace",
        "label": "contract AggregatorV3Interface",
        "numberOfBytes": "20"
      },
      "t_mapping(t_address,t_uint256)": {
        "encoding": "mapping",
        "key": "t_address",
        "label": "mapping(address => uint256)",
        "numberOfBytes": "32",
        "value": "t_uint256"
      },
      "t_uint256": {
        "encoding": "inplace",
        "label": "uint256",
        "numberOfBytes": "32"
      }
    }
  }
}