{
  "address": "0x4A0959E7592f76F7bfb0900392d3819aDF9aDBD5",
  "abi": [
    {
      "inputs": [
        {
          "internalType": "address",
          "name": "priceFeedAddress",
          "type": "address"
        }
      ],
      "stateMutability": "nonpayable",
      "type": "constructor"
    },
    {
      "inputs": [],
      "name": "BelowMinimum",
      "type": "error"
    },
    {
      "inputs": [],
      "name": "NotOwner",
      "type": "error"
    },
    {
      "inputs": [],
      "name": "TakeFailTheMoney",
      "type": "error"
    },
    {
      "inputs": [],
      "name": "Fund",
      "outputs": [],
      "stateMutability": "payable",
      "type": "function"
    },
    {
      "inputs": [
        {
          "internalType": "address",
          "name": "",
          "type": "address"
        }
      ],
      "name": "addressToFundValue",
      "outputs": [
        {
          "internalType": "uint256",
          "name": "",
          "type": "uint256"
        }
      ],
      "stateMutability": "view",
      "type": "function"
    },
    {
      "inputs": [
        {
          "internalType": "uint256",
          "name": "_minimumUsd",
          "type": "uint256"
        }
      ],
      "name": "changeMinimumUsd",
      "outputs": [],
      "stateMutability": "nonpayable",
      "type": "function"
    },
    {
      "inputs": [
        {
          "internalType": "uint256",
          "name": "",
          "type": "uint256"
        }
      ],
      "name": "funders",
      "outputs": [
        {
          "internalType": "address",
          "name": "",
          "type": "address"
        }
      ],
      "stateMutability": "view",
      "type": "function"
    },
    {
      "inputs": [],
      "name": "owner",
      "outputs": [
        {
          "internalType": "address",
          "name": "",
          "type": "address"
        }
      ],
      "stateMutability": "view",
      "type": "function"
    },
    {
      "inputs": [],
      "name": "priceFeed",
      "outputs": [
        {
          "internalType": "contract AggregatorV3Interface",
          "name": "",
          "type": "address"
        }
      ],
      "stateMutability": "view",
      "type": "function"
    },
    {
      "inputs": [],
      "name": "removeMoney",
      "outputs": [],
      "stateMutability": "nonpayable",
      "type": "function"
    }
  ],
  "transactionHash": "0xd9588f7f1ab83b76c4027ae3d652f22b3df122184bd9a4d92d0f46e9581ff7cf",
  "args": [
    "0x694AA1769357215DE4FAC081bf1f309aDC325306"
  ],
  "numDeployments": 1,
  "solcInputHash": "86be484bacb456c8025b9b4024ff6729",
  "bytecode": "0x6080604052676f05b59d3b20000060005534801561001c57600080fd5b50604051610dc2380380610dc2833981810160405281019061003e9190610129565b33600360006101000a81548173ffffffffffffffffffffffffffffffffffffffff021916908373ffffffffffffffffffffffffffffffffffffffff16021790555080600460006101000a81548173ffffffffffffffffffffffffffffffffffffffff021916908373ffffffffffffffffffffffffffffffffffffffff16021790555050610156565b600080fd5b600073ffffffffffffffffffffffffffffffffffffffff82169050919050565b60006100f6826100cb565b9050919050565b610106816100eb565b811461011157600080fd5b50565b600081519050610123816100fd565b92915050565b60006020828403121561013f5761013e6100c6565b5b600061014d84828501610114565b91505092915050565b610c5d806101656000396000f3fe6080604052600436106100705760003560e01c806380b9a0831161004e57806380b9a083146100e75780638da5cb5b146100fe578063d78a29d214610129578063dc0d3dff1461015257610070565b8063020a23a7146100755780636ce1417e146100b2578063741bef1a146100bc575b600080fd5b34801561008157600080fd5b5061009c600480360381019061009791906106ae565b61018f565b6040516100a991906106f4565b60405180910390f35b6100ba6101a7565b005b3480156100c857600080fd5b506100d16102f4565b6040516100de919061076e565b60405180910390f35b3480156100f357600080fd5b506100fc61031a565b005b34801561010a57600080fd5b5061011361044e565b6040516101209190610798565b60405180910390f35b34801561013557600080fd5b50610150600480360381019061014b91906107df565b610474565b005b34801561015e57600080fd5b50610179600480360381019061017491906107df565b61047e565b6040516101869190610798565b60405180910390f35b60026020528060005260406000206000915090505481565b6000546101df600460009054906101000a900473ffffffffffffffffffffffffffffffffffffffff16346104bd90919063ffffffff16565b1015610217576040517f860b82a900000000000000000000000000000000000000000000000000000000815260040160405180910390fd5b6001339080600181540180825580915050600190039060005260206000200160009091909190916101000a81548173ffffffffffffffffffffffffffffffffffffffff021916908373ffffffffffffffffffffffffffffffffffffffff1602179055506102af600460009054906101000a900473ffffffffffffffffffffffffffffffffffffffff16346104bd90919063ffffffff16565b600260003373ffffffffffffffffffffffffffffffffffffffff1673ffffffffffffffffffffffffffffffffffffffff16815260200190815260200160002081905550565b600460009054906101000a900473ffffffffffffffffffffffffffffffffffffffff1681565b600360009054906101000a900473ffffffffffffffffffffffffffffffffffffffff1673ffffffffffffffffffffffffffffffffffffffff163373ffffffffffffffffffffffffffffffffffffffff16146103a1576040517f30cd747100000000000000000000000000000000000000000000000000000000815260040160405180910390fd5b60003373ffffffffffffffffffffffffffffffffffffffff16476040516103c79061083d565b60006040518083038185875af1925050503d8060008114610404576040519150601f19603f3d011682016040523d82523d6000602084013e610409565b606091505b50509050600115158115151461044b576040517f8222532f00000000000000000000000000000000000000000000000000000000815260040160405180910390fd5b50565b600360009054906101000a900473ffffffffffffffffffffffffffffffffffffffff1681565b8060008190555050565b6001818154811061048e57600080fd5b906000526020600020016000915054906101000a900473ffffffffffffffffffffffffffffffffffffffff1681565b6000806104c9836104f9565b90506000670de0b6b3a764000082866104e29190610881565b6104ec919061090a565b9050809250505092915050565b6000808273ffffffffffffffffffffffffffffffffffffffff1663feaf968c6040518163ffffffff1660e01b815260040160a06040518083038186803b15801561054257600080fd5b505afa158015610556573d6000803e3d6000fd5b505050506040513d601f19601f8201168201806040525081019061057a91906109c8565b505050915050600061058b846105c1565b600a6105979190610b76565b670de0b6b3a76400006105aa919061090a565b905080826105b89190610881565b92505050919050565b60008173ffffffffffffffffffffffffffffffffffffffff1663313ce5676040518163ffffffff1660e01b815260040160206040518083038186803b15801561060957600080fd5b505afa15801561061d573d6000803e3d6000fd5b505050506040513d601f19601f820116820180604052508101906106419190610bfa565b60ff169050919050565b600080fd5b600073ffffffffffffffffffffffffffffffffffffffff82169050919050565b600061067b82610650565b9050919050565b61068b81610670565b811461069657600080fd5b50565b6000813590506106a881610682565b92915050565b6000602082840312156106c4576106c361064b565b5b60006106d284828501610699565b91505092915050565b6000819050919050565b6106ee816106db565b82525050565b600060208201905061070960008301846106e5565b92915050565b6000819050919050565b600061073461072f61072a84610650565b61070f565b610650565b9050919050565b600061074682610719565b9050919050565b60006107588261073b565b9050919050565b6107688161074d565b82525050565b6000602082019050610783600083018461075f565b92915050565b61079281610670565b82525050565b60006020820190506107ad6000830184610789565b92915050565b6107bc816106db565b81146107c757600080fd5b50565b6000813590506107d9816107b3565b92915050565b6000602082840312156107f5576107f461064b565b5b6000610803848285016107ca565b91505092915050565b600081905092915050565b50565b600061082760008361080c565b915061083282610817565b600082019050919050565b60006108488261081a565b9150819050919050565b7f4e487b7100000000000000000000000000000000000000000000000000000000600052601160045260246000fd5b600061088c826106db565b9150610897836106db565b9250817fffffffffffffffffffffffffffffffffffffffffffffffffffffffffffffffff04831182151516156108d0576108cf610852565b5b828202905092915050565b7f4e487b7100000000000000000000000000000000000000000000000000000000600052601260045260246000fd5b6000610915826106db565b9150610920836106db565b9250826109305761092f6108db565b5b828204905092915050565b600069ffffffffffffffffffff82169050919050565b61095a8161093b565b811461096557600080fd5b50565b60008151905061097781610951565b92915050565b6000819050919050565b6109908161097d565b811461099b57600080fd5b50565b6000815190506109ad81610987565b92915050565b6000815190506109c2816107b3565b92915050565b600080600080600060a086880312156109e4576109e361064b565b5b60006109f288828901610968565b9550506020610a038882890161099e565b9450506040610a14888289016109b3565b9350506060610a25888289016109b3565b9250506080610a3688828901610968565b9150509295509295909350565b60008160011c9050919050565b6000808291508390505b6001851115610a9a57808604811115610a7657610a75610852565b5b6001851615610a855780820291505b8081029050610a9385610a43565b9450610a5a565b94509492505050565b600082610ab35760019050610b6f565b81610ac15760009050610b6f565b8160018114610ad75760028114610ae157610b10565b6001915050610b6f565b60ff841115610af357610af2610852565b5b8360020a915084821115610b0a57610b09610852565b5b50610b6f565b5060208310610133831016604e8410600b8410161715610b455782820a905083811115610b4057610b3f610852565b5b610b6f565b610b528484846001610a50565b92509050818404811115610b6957610b68610852565b5b81810290505b9392505050565b6000610b81826106db565b9150610b8c836106db565b9250610bb97fffffffffffffffffffffffffffffffffffffffffffffffffffffffffffffffff8484610aa3565b905092915050565b600060ff82169050919050565b610bd781610bc1565b8114610be257600080fd5b50565b600081519050610bf481610bce565b92915050565b600060208284031215610c1057610c0f61064b565b5b6000610c1e84828501610be5565b9150509291505056fea26469706673582212208d428a423ace52bbb19e33a8ffe639cbd5d3a1f786b205e457dd3ba1101891ae64736f6c63430008080033",
  "devdoc": {
    "kind": "dev",
    "methods": {},
    "version": 1
  },
  "userdoc": {
    "kind": "user",
    "methods": {},
    "version": 1
  },
  "storageLayout": {
    "storage": [
      {
        "astId": 59,
        "contract": "contracts/FundMe.sol:FundMe",
        "label": "minimumUsd",
        "offset": 0,
        "slot": "0",
        "type": "t_uint256"
      },
      {
        "astId": 65,
        "contract": "contracts/FundMe.sol:FundMe",
        "label": "funders",
        "offset": 0,
        "slot": "1",
        "type": "t_array(t_address)dyn_storage"
      },
      {
        "astId": 69,
        "contract": "contracts/FundMe.sol:FundMe",
        "label": "addressToFundValue",
        "offset": 0,
        "slot": "2",
        "type": "t_mapping(t_address,t_uint256)"
      },
      {
        "astId": 71,
        "contract": "contracts/FundMe.sol:FundMe",
        "label": "owner",
        "offset": 0,
        "slot": "3",
        "type": "t_address"
      },
      {
        "astId": 74,
        "contract": "contracts/FundMe.sol:FundMe",
        "label": "priceFeed",
        "offset": 0,
        "slot": "4",
        "type": "t_contract(AggregatorV3Interface)45"
      }
    ],
    "types": {
      "t_address": {
        "encoding": "inplace",
        "label": "address",
        "numberOfBytes": "20"
      },
      "t_array(t_address)dyn_storage": {
        "base": "t_address",
        "encoding": "dynamic_array",
        "label": "address[]",
        "numberOfBytes": "32"
      },
      "t_contract(AggregatorV3Interface)45": {
        "encoding": "inplace",
        "label": "contract AggregatorV3Interface",
        "numberOfBytes": "20"
      },
      "t_mapping(t_address,t_uint256)": {
        "encoding": "mapping",
        "key": "t_address",
        "label": "mapping(address => uint256)",
        "numberOfBytes": "32",
        "value": "t_uint256"
      },
      "t_uint256": {
        "encoding": "inplace",
        "label": "uint256",
        "numberOfBytes": "32"
      }
    }
  }
}